S00E00005241594C49442E7372656351
S11300000C9434000C9451000C9451000C94510045
S11300100C9451000C9451000C9451000C94510018
S11300200C9451000C9451000C9451000C94510008
S11300300C9451000C9451000C9451000C945100F8
S11300400C9451000C9451000C9451000C945100E8
S11300500C9451000C9451000C9451000C945100D8
S11300600C9451000C94510011241FBECFEFD8E022
S1130070DEBFCDBF11E0A0E0B1E0EAE5FFE002C0E1
S113008005900D92A030B107D9F711E0A0E0B1E0DE
S113009001C01D92A130B107E1F70E9453000C94F6
S11300A0AB070C940000C0E0D1E0CE010E947200C6
S11300B0CE010E947500CE016FEF0E94930000E014
S11300C010E09801680179010894C11CD11CE11C5D
S11300D0F11CCE0160E040E20E94430597018601D5
S11300E0F1CF08950E94260708950E9437070E94C1
S11300F0560780E10E9469070E94500708950E94F4
S113010037070E94560781E10E9469070E94500741
S113011008950E9437070E94560782E10E946907EA
S11301200E9450070895CF93C62F0E9437070E945C
S1130130560783E10E9469078C2F0E9469070E9479
S11301405007CF910895CF93DF93D62FC42F0E94E9
S113015037070E94560780E30E9469078D2F0E948B
S113016069078C2F0E9469070E945007DF91CF9185
S11301700895CF93DF93D62FC42F0E9437070E9490
S1130180560781E30E9469078D2F0E9469078C2F0F
S11301900E9469070E945007DF91CF9108950F9341
S11301A01F93CF93DF93162FD42FC22F0E943707AC
S11301B00E94560782E30E946907812F0E94690703
S11301C08D2F0E9469078C2F0E946907802F0E943F
S11301D069070E945007DF91CF911F910F910895F5
S11301E00F931F93CF93DF93162FD42FC22F0E9408
S11301F037070E94560783E30E946907812F0E94F4
S113020069078D2F0E9469078C2F0E946907802F30
S11302100E9469070E945007DF91CF911F910F91AF
S113022008950F931F93CF93DF93162FD42FC22FCC
S11302300E9437070E94560784E30E946907812FB2
S11302400E9469078D2F0E9469078C2F0E946907FD
S1130250802F0E9469070E945007DF91CF911F9160
S11302600F9108950F931F93CF93DF93162FD42FDD
S1130270C22F0E9437070E94560785E30E94690730
S1130280812F0E9469078D2F0E9469078C2F0E947D
S11302906907802F0E9469070E945007DF91CF9160
S11302A01F910F9108950F931F93CF93DF93162FF0
S11302B0D42FC22F0E9437070E94560786E30E945C
S11302C06907812F0E9469078D2F0E9469078C2F6F
S11302D00E946907802F0E9469070E945007DF91DE
S11302E0CF911F910F9108950F931F93CF93DF9395
S11302F0162FD42FC22F0E9437070E94560787E378
S11303000E946907812F0E9469078D2F0E94690747
S11303108C2F0E946907802F0E9469070E94500752
S1130320DF91CF911F910F9108951F93CF93DF9386
S1130330162FD42FC22F0E9437070E94560788E336
S11303400E946907812F0E9469078D2F0E94690707
S11303508C2F0E9469070E945007DF91CF911F9153
S113036008951F93CF93DF93162FD42FC22F0E948B
S113037037070E94560789E30E946907812F0E946C
S113038069078D2F0E9469078C2F0E9469070E94BC
S11303905007DF91CF911F9108951F93CF93DF935F
S11303A0162FD42FC22F0E9437070E9456078AE3C4
S11303B00E946907812F0E9469078D2F0E94690797
S11303C08C2F0E9469070E945007DF91CF911F91E3
S11303D008951F93CF93DF93162FD42FC22F0E941B
S11303E037070E9456078BE30E946907812F0E94FA
S11303F069078D2F0E9469078C2F0E9469070E944C
S11304005007DF91CF911F9108950F931F93CF93BE
S1130410DF93162FD42FC22F0E9437070E9456074E
S113042088E30E946907812F0E9469078D2F0E942B
S113043069078C2F0E946907802F0E9469070E9418
S11304405007DF91CF911F910F910895CF93DF93C0
S1130450C62FD72F0E9437070E9456078DE30E94AC
S113046069078D2F0E9469078C2F0E9469070E94DB
S11304705007DF91CF910895AF92CF92EF92FF9200
S11304800F931F93CF93DF93D62FC72F142FF22EE2
S11304900E9437070E9456078EE30E9469078C2F3B
S11304A00E9469078D2F0E946907802F0E946907A7
S11304B08E2D0E946907812F0E9469078F2D0E944B
S11304C069078C2D0E9469078A2D0E9469070E9482
S11304D05007DF91CF911F910F91FF90EF90CF9034
S11304E0AF900895CF93DF93D62FC42F0E94370780
S11304F00E94560780E20E9469078D2F0E946907B7
S11305008C2F0E9469070E945007DF91CF910895B4
S1130510CF93DF93D62FC42F0E9437070E9456072C
S113052081E20E9469078D2F0E9469078C2F0E9427
S113053069070E945007DF91CF9108950E94370701
S11305400E94560783E20E9469070E94500708959B
S11305500E9437070E94560782E20E9469070E94A0
S1130560500708954F925F926F927F928F929F925D
S1130570AF92BF92CF92DF92EF92FF920F931F93AD
S1130580CF93DF932A013B010E9437070E9456074D
S113059084E20E946907411451046104710421F446
S11305A080E30E94690747C0CAE0D0E010E00F2E44
S11305B0F0E0CF2EFAECDF2EFAE9EF2EFBE3FF2E6C
S11305C0F02D0F2EFAE08F2EF0E09F2EF0E0AF2EEC
S11305D0F0E0BF2EF02D01E0C301B201A7019601A6
S11305E00E948907112389F421153105410551051C
S11305F061F0CA01B901A50194010E948907862FFF
S1130600805D0E946907102F0CC0113051F4CA019B
S1130610B901A50194010E948907862F805D0E947B
S11306206907C701B601A50194010E948907690100
S11306307A01219789F680E00E9469070E94500799
S1130640DF91CF911F910F91FF90EF90DF90CF90AA
S1130650BF90AF909F908F907F906F905F904F90DE
S113066008954F925F926F927F928F929F92AF9272
S1130670BF92CF92DF92EF92FF920F931F93CF938B
S1130680DF932A013B010E9437070E94560785E247
S11306900E946907411451046104710421F480E348
S11306A00E94690747C0CAE0D0E010E00F2EF0E0D6
S11306B0CF2EFAECDF2EFAE9EF2EFBE3FF2EF02D1E
S11306C00F2EFAE08F2EF0E09F2EF0E0AF2EF0E038
S11306D0BF2EF02D01E0C301B201A70196010E94D3
S11306E08907112389F4211531054105510561F06C
S11306F0CA01B901A50194010E948907862F805D72
S11307000E946907102F0CC0113051F4CA01B901BD
S1130710A50194010E948907862F805D0E946907C4
S1130720C701B601A50194010E94890769017A01F4
S1130730219789F680E00E9469070E945007DF91A3
S1130740CF911F910F91FF90EF90DF90CF90BF90CA
S1130750AF909F908F907F906F905F904F9008958F
S11307604F925F926F927F928F929F92AF92BF92BD
S1130770CF92DF92EF92FF920F931F93CF93DF9369
S11307802A013B010E9437070E94560786E20E9415
S11307906907411451046104710421F480E30E9447
S11307A0690747C0CAE0D0E010E00F2EF0E0CF2E7A
S11307B0FAECDF2EFAE9EF2EFBE3FF2EF02D0F2EDD
S11307C0FAE08F2EF0E09F2EF0E0AF2EF0E0BF2E87
S11307D0F02D01E0C301B201A70196010E9489072F
S11307E0112389F4211531054105510561F0CA0130
S11307F0B901A50194010E948907862F805D0E949A
S11308006907102F0CC0113051F4CA01B901A501B8
S113081094010E948907862F805D0E946907C701A1
S1130820B601A50194010E94890769017A01219703
S113083089F680E00E9469070E945007DF91CF91FA
S11308401F910F91FF90EF90DF90CF90BF90AF90EA
S11308509F908F907F906F905F904F9008954F92EC
S11308605F926F927F928F929F92AF92BF92CF923C
S1130870DF92EF92FF920F931F93CF93DF93C62FD4
S1130880C42E280139010E9437070E94560780E2CE
S11308900E9469078C2F0E9469078C2D0E946907AA
S11308A084E20E946907411451046104710421F433
S11308B080E30E94690747C0CAE0D0E010E00F2E31
S11308C0F0E0CF2EFAECDF2EFAE9EF2EFBE3FF2E59
S11308D0F02D0F2EFAE08F2EF0E09F2EF0E0AF2ED9
S11308E0F0E0BF2EF02D01E0C301B201A701960193
S11308F00E948907112389F4211531054105510509
S113090061F0CA01B901A50194010E948907862FEB
S1130910805D0E946907102F0CC0113051F4CA0188
S1130920B901A50194010E948907862F805D0E9468
S11309306907C701B601A50194010E9489076901ED
S11309407A01219789F680E00E9469070E94500786
S1130950DF91CF911F910F91FF90EF90DF90CF9097
S1130960BF90AF909F908F907F906F905F904F90CB
S113097008954F925F926F927F928F929F92AF925F
S1130980BF92CF92DF92EF92FF920F931F93CF9378
S1130990DF93C62FC42E280139010E9437070E9415
S11309A0560780E20E9469078C2F0E9469078C2DEC
S11309B00E94690785E20E94690741145104610499
S11309C0710421F480E30E94690747C0CAE0D0E0C3
S11309D010E00F2EF0E0CF2EFAECDF2EFAE9EF2E26
S11309E0FBE3FF2EF02D0F2EFAE08F2EF0E09F2E6A
S11309F0F0E0AF2EF0E0BF2EF02D01E0C301B20114
S1130A00A70196010E948907112389F42115310554
S1130A104105510561F0CA01B901A50194010E9483
S1130A208907862F805D0E946907102F0CC0113042
S1130A3051F4CA01B901A50194010E948907862FC6
S1130A40805D0E946907C701B601A50194010E9457
S1130A50890769017A01219789F680E00E94690774
S1130A600E945007DF91CF911F910F91FF90EF905B
S1130A70DF90CF90BF90AF909F908F907F906F90BA
S1130A805F904F9008954F925F926F927F928F92F2
S1130A909F92AF92BF92CF92DF92EF92FF920F9309
S1130AA01F93CF93DF93C62FC42E280139010E94D0
S1130AB037070E94560780E20E9469078C2F0E9424
S1130AC069078C2D0E94690786E20E946907411418
S1130AD051046104710421F480E30E94690747C052
S1130AE0CAE0D0E010E00F2EF0E0CF2EFAECDF2EBB
S1130AF0FAE9EF2EFBE3FF2EF02D0F2EFAE08F2EF6
S1130B00F0E09F2EF0E0AF2EF0E0BF2EF02D01E0DC
S1130B10C301B201A70196010E948907112389F438
S1130B20211531054105510561F0CA01B901A5013D
S1130B3094010E948907862F805D0E946907102F07
S1130B400CC0113051F4CA01B901A50194010E94ED
S1130B508907862F805D0E946907C701B601A50138
S1130B6094010E94890769017A01219789F680E03E
S1130B700E9469070E945007DF91CF911F910F9146
S1130B80FF90EF90DF90CF90BF90AF909F908F90A9
S1130B907F906F905F904F900895CF93DF93EB0118
S1130BA00E9437070E94560787E20E9469078881DE
S1130BB0882331F021960E94690789918823D9F707
S1130BC080E00E9469070E945007DF91CF91089549
S1130BD0CF93DF93EB010E9437070E94560788E208
S1130BE00E9469078881882331F021960E94690751
S1130BF089918823D9F780E00E9469070E945007F1
S1130C00DF91CF9108950F931F93CF93DF93062F16
S1130C10142FE9010E9437070E94560780E20E94C0
S1130C206907802F0E946907812F0E94690787E264
S1130C300E9469078881882331F021960E94690700
S1130C4089918823D9F780E00E9469070E945007A0
S1130C50DF91CF911F910F9108950F931F93CF931D
S1130C60DF93062F142FE9010E9437070E945607CD
S1130C7080E20E946907802F0E946907812F0E94E9
S1130C80690788E20E9469078881882331F02196E8
S1130C900E94690789918823D9F780E00E94690737
S1130CA00E945007DF91CF911F910F910895CF9328
S1130CB0DF93EB010E9437070E94560784E20E94EB
S1130CC069078881882331F021960E9469078991F8
S1130CD08823D9F780E00E9469070E945007DF91BA
S1130CE0CF910895CF93DF93EB010E9437070E94C1
S1130CF0560785E20E9469078881882331F021968E
S1130D000E94690789918823D9F780E00E946907C6
S1130D100E945007DF91CF910895CF93DF93EB01A9
S1130D200E9437070E94560786E20E94690788815D
S1130D30882331F021960E94690789918823D9F785
S1130D4080E00E9469070E945007DF91CF910895C7
S1130D500F931F93CF93DF93062F142FE9010E9463
S1130D6037070E94560780E20E946907802F0E947D
S1130D706907812F0E94690784E20E9469078881BC
S1130D80882331F021960E94690789918823D9F735
S1130D9080E00E9469070E945007DF91CF911F9164
S1130DA00F9108950F931F93CF93DF93062F142F62
S1130DB0E9010E9437070E94560780E20E946907F2
S1130DC0802F0E946907812F0E94690785E20E9493
S1130DD069078881882331F021960E9469078991E7
S1130DE08823D9F780E00E9469070E945007DF91A9
S1130DF0CF911F910F9108950F931F93CF93DF937A
S1130E00062F142FE9010E9437070E94560780E23B
S1130E100E946907802F0E946907812F0E94690739
S1130E2086E20E9469078881882331F021960E9416
S1130E30690789918823D9F780E00E9469070E9495
S1130E405007DF91CF911F910F91089580E880930F
S1130E50B8001092BA00E9EBF0E080818083109230
S1130E60BC003B98439A08953399FECF08950E949D
S1130E703407ECEBF0E08081846A808380818823EE
S1130E80ECF78091B900887F883041F09091B900E7
S1130E90987F81E0903119F080E0089581E0089511
S1130EA0ECEBF0E080818469808308951092BB00AC
S1130EB0ECEBF0E080818B708468808380818823F0
S1130EC0ECF79091B900987F81E0983109F080E0C7
S1130ED00895CF93C82F0E943407C093BB00ECEB56
S1130EE0F0E080818B708468808380818823ECF7B4
S1130EF08091B900887F883239F08091B900887F69
S1130F00803321F482E003C081E001C080E0CF910E
S1130F100895A1E21A2EAA1BBB1BFD010DC0AA1F36
S1130F20BB1FEE1FFF1FA217B307E407F50720F04E
S1130F30A21BB30BE40BF50B661F771F881F991FC9
S1130F401A9469F760957095809590959B01AC0112
S10D0F50BD01CF010895F894FFCF0E
S9030000FC
